:020000040000FA
:04000000FEEF17F008
:10105C00C58AC5881200C58656EC08F01200C582F8
:10106C0056EC08F01200C58056EC08F01200C5844E
:10107C0056EC08F0120031EC08F02EEC08F0C950D8
:10108C001200016E01C0C9FF56EC08F01200016E8F
:10109C0001C0A9FFA694A69EA69CA680A8501200EB
:1010AC009EA65BEF08F05DEF08F056EF08F09E96F9
:1010BC001200B7EC0AF01E0E936EF19E818E818C9D
:1010CC00818A12000F0EC16E1E0E936EF19E81501E
:1010DC00E009816E120094869488280EC66E310E3B
:1010EC00C86EC79CC78E9E96A1961200016E9EA8D4
:1010FC0082EF08F084EF08F07DEF08F09E9801C0B5
:10110C00ADFF12000A6E000E016E09503EEC09F0A4
:10111C00010E016E0A503EEC09F01200036E39EC20
:10112C0008F0D00E47EC08F0035047EC08F00250E2
:10113C0047EC08F03DEC08F01200948E949CAC9CAB
:10114C00AC8AAC98AC96AC84AB8EAB9CAB88B896A6
:10115C00810EAF6E9E989E9A1200C29AC288C29659
:10116C00C294C280C19AC198C186C194C182C190F7
:10117C00C08EC094C082C090C08AC098C098120023
:10118C00C282C2B2CCEF08F0CEEF08F0C7EF08F085
:10119C00C350C4CF03F0046A03C004F0036A031005
:1011AC00016E0450026E1200026E39EC08F0D00E83
:1011BC0047EC08F0025047EC08F035EC08F0D10E83
:1011CC0047EC08F041EC08F0036E3DEC08F00350DE
:1011DC001200036E03C0A9FF02C0A8FFA69EA69C26
:1011EC00A684F29E550EA76EAA0EA76EA682F28E4C
:1011FC00A1A803EF09F005EF09F0FEEF08F0A198A4
:10120C00120013EF09F002C0F6FF03C0F7FF08004D
:10121C00F5507CEC08F0024A032A02C0F6FF03C02A
:10122C00F7FF0800F5500009D8A41FEF09F021EFD3
:10123C0009F009EF09F012000D50D5EC09F0156E0C
:10124C0015C002F0020E94EC08F00F50D5EC09F02A
:10125C00146E14C002F0010E94EC08F01150D5EC91
:10126C0009F0136E13C002F0000E94EC08F012009B
:10127C00026E01B044EF09F047EF09F0828248EFAB
:10128C0009F0829202C083FF82848294958E8280C0
:10129C0082928284829483BE56EF09F058EF09F053
:1012AC004FEF09F08290959E1200000EDAEC08F0D8
:1012BC00046E04508009026E000E94EC08F0020ECD
:1012CC00DAEC08F0046E0450BF0B026E020E94ECC4
:1012DC0008F0930E026E070E94EC08F0000EDAEC98
:1012EC0008F0046E04507F0B026E000E94EC08F0B4
:1012FC001200520EF66E130EF76E000EF86E00EE24
:10130C0060F010EE58F00900F5CFEEFFE550E1501B
:10131C00FAE1000EF66E300EF76E000EF86E090054
:10132C00F5CF5EF000EEB8F0140EEE6AE806FDE1C3
:10133C0000EE3DF0210EEE6AE806FDE1000EF86EBF
:10134C0000010BEF0CF076696577206C6F6720203D
:10135C00202000446F776E6C6F6164206C6F6700A7
:10136C00436C656172206C6F67202020005365749C
:10137C002074696D6520202020004F4E00475200DC
:10138C00474E00473100473200473300473400478F
:10139C00350020430030303A30303A3030000C6E9B
:1013AC000A6A0B6AFEEF09F00BC009F00CC001F0E1
:1013BC00026A000E046E0A0E036EB4EC0BF0092ADE
:1013CC00EAEF09F0D8900136092EE8EF09F0015048
:1013DC000A100A6E0CC001F0026A000E046E0A0EAE
:1013EC00036E68EC0CF001500C6E0B50040F0B6E7E
:1013FC000C50D8A404EF0AF006EF0AF0DAEF09F06B
:10140C000A501200000E016E05503EEC09F025EF5B
:10141C000AF0010E016E03C0F6FF04C0F7FFF86A74
:10142C00050EF76403D00800F55005D0F6CFE9FFA0
:10143C00F7CFEAFFEF503EEC09F0034A042A03C051
:10144C00F6FF04C0F7FFF86A050EF76403D0080036
:10145C00F55005D0F6CFE9FFF7CFEAFFEF500009C2
:10146C00D8A43BEF0AF03DEF0AF00FEF0AF01200A0
:10147C00016E0104D8A445EF0AF047EF0AF06AEFB9
:10148C000AF04CEC0DF05B6E5B28D8B450EF0AF010
:10149C0052EF0AF05EEF0AF05E50D8B458EF0AF043
:1014AC005AEF0AF05EEF0AF05E6A5B5077EF0AF0D3
:1014BC005B28D8A464EF0AF066EF0AF076EF0AF026
:1014CC00010E5E6E76EF0AF00150D8A470EF0AF0B0
:1014DC0072EF0AF076EF0AF04CEC0DF077EF0AF0B1
:1014EC00FF0E1200020EDAEC08F0466E010EDAEC7A
:1014FC0008F0476E000EDAEC08F0486E46AC89EF47
:10150C000AF08BEF0AF096EF0AF046380F0B010B3E
:10151C00300F3D6E46500F0B300F3E6E9FEF0AF0B2
:10152C0046380F0B030B300F3D6E46500F0B300F30
:10153C003E6E3A0E3F6E47380F0B0F0B300F406E5E
:10154C0047500F0B300F416E3A0E426E48380F0B5E
:10155C000F0B300F436E48500F0B300F446E456A23
:10156C001200956A9450F80B946E8290C30E036E21
:10157C00CD0EE82EFED7032EFCD70000000E016E18
:10158C00300E3EEC09F01B0E036E9E0EE82EFED7BD
:10159C00032EFCD700D0000E016E300E3EEC09F08D
:1015AC00A60EE82EFED700D0000E016E300E3EECDB
:1015BC0009F000D000D00000000E016E020E3EECCF
:1015CC0009F0A60EE82EFED700D0000E016E380EE4
:1015DC003EEC09F0A60EE82EFED700D0000E016EF0
:1015EC00010E3EEC09F0040E036E3E0EE82EFED703
:1015FC00032EFCD7000E016E0C0E3EEC09F0A60E6D
:10160C00E82EFED700D01200000E586E000E576E5A
:10161C00A20E036E2F0E046E800E056E08EC0AF0FF
:10162C00950E036E2F0E046EC00E056E08EC0AF0BC
:10163C00000E066E350E076E0C0E086E000E096E4F
:10164C000606000E075A085A095A06280AE1072806
:10165C0008E1082806E10928D8A437EF0BF039EF88
:10166C000BF026EF0BF0000E0A6E350E0B6E0C0E07
:10167C000C6E000E0D6E0A06000E0B5A0C5A0D5A0B
:10168C000A280AE10B2808E10C2806E10D28D8A449
:10169C0052EF0BF054EF0BF041EF0BF0000E016E1C
:1016AC00010E3EEC09F0000E586E000E576E5C6A8F
:1016BC0012004DC001F04EC002F0000E046E0A0E76
:1016CC00036E68EC0CF00150300F0001AF6F4DC091
:1016DC0001F04EC002F0000E046E0A0E036EB4EC64
:1016EC000BF00150300F0001B06F4BC001F04CC03B
:1016FC0002F0000E046E0A0E036E68EC0CF0015042
:10170C00300F0001B26F4BC001F04CC002F0000E64
:10171C00046E0A0E036EB4EC0BF00150300F000196
:10172C00B36F49C001F04AC002F0000E046E0A0EFD
:10173C00036E68EC0CF00150300F0001B56F49C01E
:10174C0001F04AC002F0000E046E0A0E036EB4ECF7
:10175C000BF00150300F0001B66F1200066A02BE8A
:10176C00BCEF0BF0BAEF0BF0C2EF0BF0016C021EEA
:10177C00D8B0022A010E066E04BEC9EF0BF0C7EFFB
:10178C000BF0CDEF0BF0036C041ED8B0042A035001
:10179C000410D8B4D4EF0BF0D6EF0BF0FAEF0BF03B
:1017AC00010E056EDEEF0BF0D89003360436052AD9
:1017BC0004AEE3EF0BF0E5EF0BF0DAEF0BF00350B8
:1017CC00015C04500258D8A0EEEF0BF0F0EF0BF0D8
:1017DC00F4EF0BF00350015E0450025AD89004321F
:1017EC000332052EE5EF0BF00650D8B400EF0CF0E9
:1017FC0002EF0CF006EF0CF0016C021ED8B0022ABE
:10180C0001C001F002C002F012005C6A5FEC08F04B
:10181C00B3EC08F068EC08F0A3EC08F071EC08F0FD
:10182C005BEC09F05C50D8A41EEF0CF020EF0CF030
:10183C0024EF0CF023EC12F018EF0CF05C04D8A49D
:10184C002AEF0CF02CEF0CF030EF0CF094EC0FF0C6
:10185C0018EF0CF0020E5C18D8A437EF0CF039EF2F
:10186C000CF03DEF0CF0AAEC0EF018EF0CF0030EA0
:10187C005C18D8A444EF0CF046EF0CF04AEF0CF0D7
:10188C00B5EC10F018EF0CF0040E5C18D8A451EF66
:10189C000CF053EF0CF057EF0CF00AEC0BF018EFC8
:1018AC000CF0050E5C18D8A45EEF0CF060EF0CF099
:1018BC0064EF0CF0ABEC15F018EF0CF018EF0CF02B
:1018CC00FEEF17F0066A04BE70EF0CF06EEF0CF032
:1018DC0076EF0CF0036C041ED8B0042A010E066ED1
:1018EC0002BE7DEF0CF07BEF0CF083EF0CF0016C83
:1018FC00021ED8B0022A010E061A000E086E000E47
:10190C00076E03500410D8B48EEF0CF090EF0CF06F
:10191C00B8EF0CF0010E056E98EF0CF0D890033672
:10192C000436052A04AE9DEF0CF09FEF0CF094EFFB
:10193C000CF0D890073608360350015C045002585E
:10194C00D8A0ABEF0CF0ADEF0CF0B2EF0CF00350F5
:10195C00015E0450025A0780D89004320332052EDF
:10196C009FEF0CF00650D8B4BEEF0CF0C0EF0CF0AB
:10197C00C4EF0CF0076C081ED8B0082A07C001F0A1
:10198C0008C002F012002E342F34356E3550D8A416
:10199C00D2EF0CF0D4EF0CF0DEEF0CF0000E2C6E4E
:1019AC00000E2D6E000E2E6E000E2F6E4BEF0DF0F6
:1019BC002CC030F02DC031F02EC032F02FC033F0DF
:1019CC00200EEEEF0CF0D89033323232313230320E
:1019DC00E82EE9EF0CF03050346E2E8EFF0E2C16E4
:1019EC00FF0E2D16FF0E2E16000E2F16960E355EC0
:1019FC0035BE05EF0DF003EF0DF01BEF0DF035507C
:101A0C00800A970FD8B00DEF0DF00FEF0DF011EF1E
:101A1C000DF0D4EF0CF0D8902F322E322D322C3218
:101A2C00353E11EF0DF033EF0DF01F0E356421EF45
:101A3C000DF023EF0DF02BEF0DF0D4EF0CF0D89050
:101A4C002C362D362E362F3635063550D8A431EFA0
:101A5C000DF033EF0DF025EF0DF03450D8B439EF15
:101A6C000DF03BEF0DF043EF0DF02F1E2E1E2D1E33
:101A7C002C6C000E2D222E222F222CC02CF02DC0CF
:101A8C002DF02EC02EF02FC02FF01200819A818CD9
:101A9C00818E81B254EF0DF056EF0DF059EF0DF031
:101AAC00010ECFEF0DF081B45EEF0DF060EF0DF095
:101ABC0063EF0DF0040ECFEF0DF081B668EF0DF073
:101ACC006AEF0DF06DEF0DF0070ECFEF0DF081B852
:101ADC0072EF0DF074EF0DF077EF0DF00A0ECFEF03
:101AEC000DF0818A819C818E81B27FEF0DF081EFA8
:101AFC000DF084EF0DF0020ECFEF0DF081B489EFF5
:101B0C000DF08BEF0DF08EEF0DF0050ECFEF0DF00D
:101B1C0081B693EF0DF095EF0DF098EF0DF0080EE8
:101B2C00CFEF0DF081B89DEF0DF09FEF0DF0A2EF10
:101B3C000DF00B0ECFEF0DF0818A818C819E819E72
:101B4C0081B2ABEF0DF0ADEF0DF0B0EF0DF0030E79
:101B5C00CFEF0DF081B4B5EF0DF0B7EF0DF0BAEF9C
:101B6C000DF0060ECFEF0DF081B6BFEF0DF0C1EF0B
:101B7C000DF0C4EF0DF0090ECFEF0DF081B8C9EFE9
:101B8C000DF0CBEF0DF0CEEF0DF00C0ECFEF0DF006
:101B9C00FF0E12000D6E0D50D8B4D7EF0DF0D9EF2B
:101BAC000DF0FBEF0DF008BEE0EF0DF0DEEF0DF0E9
:101BBC00FBEF0DF005C009F006C00AF007C00BF0F2
:101BCC0008C00CF0091E0A1E0B1E0C1E092A000E62
:101BDC000A220B220C2209C00FF00AC010F00BC015
:101BEC0011F00CC012F003EF0EF005C00FF006C0A0
:101BFC0010F007C011F008C012F0055006100710C5
:101C0C000810D8A40CEF0EF00EEF0EF018EF0EF03B
:101C1C00000E056E000E066E000E076E000E086EAE
:101C2C00A9EF0EF0960E0E6E22EF0EF00E2AD89043
:101C3C001232113210320F32000E0F14096E000ED8
:101C4C0010140A6E000E11140B6EFE0E12140C6E94
:101C5C0009500A100B100C10D8A437EF0EF039EF06
:101C6C000EF01CEF0EF047EF0EF00E2A010E0F26B1
:101C7C00000E102211221222D89012321132103280
:101C8C000F32000E0F14096E000E10140A6E000EA7
:101C9C0011140B6EFF0E12140C6E09500A100B105F
:101CAC000C10D8A45CEF0EF05EEF0EF03BEF0EF0D4
:101CBC0066EF0EF00E06D8900F361036113612362F
:101CCC0011BE6BEF0EF06DEF0EF075EF0EF0020E15
:101CDC000E6073EF0EF075EF0EF060EF0EF00EB0BD
:101CEC007AEF0EF07CEF0EF07DEF0EF0119ED89097
:101CFC000E320EC009F00A6A0B6A0C6A09C00CF0AD
:101D0C000B6A0A6A096A09500F120A5010120B501A
:101D1C0011120C5012120D50D8B497EF0EF099EF1F
:101D2C000EF0A1EF0EF008BEA0EF0EF09EEF0EF03D
:101D3C00A1EF0EF0128E0FC005F010C006F011C00E
:101D4C0007F012C008F01200BC0E036E2F0E046ECA
:101D5C00800E056E08EC0AF057505810D8A4B9EF55
:101D6C000EF0BBEF0EF0CDEF0EF0E60E036E2F0E65
:101D7C00046E800E056E08EC0AF0DC0E036E2F0E5E
:101D8C00046EC00E056E08EC0AF093EF0FF0010E16
:101D9C003EEC0AF05D6E0A0E5302F3CF0BF0F4CF5B
:101DAC000CF05402F3500C260BC00DF00CC00EF0CE
:101DBC00030E5D18D8A4E5EF0EF0E7EF0EF0FDEF83
:101DCC000EF0534A542A5750531807E158505418E0
:101DDC00D8A4F3EF0EF0F5EF0EF026EF0FF0FF0E98
:101DEC005724536EFF0E5820546E26EF0FF0020E40
:101DFC005D18D8A404EF0FF006EF0FF016EF0FF0FC
:101E0C005306D8A0540654BE10EF0FF00EEF0FF08F
:101E1C0026EF0FF0000E546E000E536E26EF0FF0EF
:101E2C00050E5D18D8A41DEF0FF01FEF0FF026EF75
:101E3C000FF0010E5C6E000E0001CB6F000ECA6F2E
:101E4C00C00E096E5350300F88EC08F0C10E096EAD
:101E5C00200E88EC08F0C20E096E0D504DEC08F007
:101E6C0088EC08F0C30E096E0D284DEC08F088ECD8
:101E7C0008F0C40E096E3A0E88EC08F0C50E096E17
:101E8C000D50020F4DEC08F088EC08F0C60E096EF0
:101E9C000D50030F4DEC08F088EC08F0C70E096EDE
:101EAC003A0E88EC08F0C80E096E0D50040F4DEC7C
:101EBC0008F088EC08F0C90E096E0D50050F4DECBA
:101ECC0008F088EC08F0CA0E096E200E88EC08F0B9
:101EDC00CB0E096E0D50060F4DEC08F088EC08F097
:101EEC00CC0E096E0D50070F4DEC08F088EC08F085
:101EFC00CD0E096E200E88EC08F0CE0E096E0D503A
:101F0C00080F4DEC08F088EC08F0CF0E096E0D5060
:101F1C00090F4DEC08F088EC08F01200010E3EECB5
:101F2C000AF05D6E0001CA51CB11D8A4A0EF0FF0DE
:101F3C00A2EF0FF0D0EF0FF0000E016E010E3EEC91
:101F4C0009F055500D0DF350600F0B6E0BC003F0E4
:101F5C00046A810E056E08EC0AF055500D0DF35015
:101F6C006D0F0B6E0BC003F0046AC10E056E08EC0E
:101F7C000AF0800E096E2A0E88EC08F0C00E096E6D
:101F8C00200E88EC08F0000E0001CB6F010ECA6F1A
:101F9C0050EF10F0030E5D18D8A4D7EF0FF0D9EF67
:101FAC000FF012EF10F0000E016E010E3EEC09F076
:101FBC00554A562A040E55185610D8A4E8EF0FF0BF
:101FCC00EAEF0FF0EEEF0FF0000E566E030E556EAB
:101FDC0055500D0DF350530F0B6E0BC003F0046AEC
:101FEC00810E056E08EC0AF055500D0DF350600F84
:101FFC000B6E0BC003F0046AC10E056E08EC0AF000
:10200C00800E096E200E88EC08F0C00E096E2A0EA8
:10201C0088EC08F050EF10F0020E5D18D8A419EF00
:10202C0010F01BEF10F050EF10F0000E016E010ECF
:10203C003EEC09F05506D8A0560656BE2AEF10F015
:10204C0028EF10F02EEF10F0000E566E000E556EAD
:10205C0055500D0DF350600F0B6E0BC003F0046A5E
:10206C00810E056E08EC0AF055500D0DF3506D0FF6
:10207C000B6E0BC003F0046AC10E056E08EC0AF07F
:10208C00800E096E2A0E88EC08F0C00E096E200E28
:10209C0088EC08F0050E5D18D8A457EF10F059EF36
:1020AC0010F061EF10F0000E016E010E3EEC09F025
:1020BC005C6AB4EF10F0040E5D18D8A468EF10F051
:1020CC006AEF10F0B4EF10F055505610D8A471EF21
:1020DC0010F073EF10F07CEF10F0020E5C6E000E3F
:1020EC00016E010E3EEC09F0B4EF10F055045610E1
:1020FC00D8A483EF10F085EF10F08EEF10F0030EE4
:10210C005C6E000E016E010E3EEC09F0B4EF10F0A7
:10211C00020E55185610D8A496EF10F098EF10F048
:10212C00A1EF10F0040E5C6E000E016E010E3EEC81
:10213C0009F0B4EF10F0030E55185610D8A4A9EFFF
:10214C0010F0ABEF10F0B4EF10F0050E5C6E000E5B
:10215C00016E010E3EEC09F0B4EF10F01200575076
:10216C005810D8A4BCEF10F0BEEF10F00CEF11F02B
:10217C00C80E036E2F0E046E800E056E08EC0AF06E
:10218C00AF0E036E2F0E046EC00E056E08EC0AF037
:10219C00000E066E350E076E0C0E086E000E096EE4
:1021AC000606000E075A085A095A06280AE107289B
:1021BC0008E1082806E10928D8A4E7EF10F0E9EFB8
:1021CC0010F0D6EF10F0000E0A6E350E0B6E0C0EE2
:1021DC000C6E000E0D6E0A06000E0B5A0C5A0D5AA0
:1021EC000A280AE10B2808E10C2806E10D28D8A4DE
:1021FC0002EF11F004EF11F0F1EF10F0000E016E90
:10220C00010E3EEC09F05C6A22EF12F0870E036EB1
:10221C002F0E046E800E056E08EC0AF0D20E036EC3
:10222C002F0E046EC00E056E08EC0AF0000E0E6E3A
:10223C00350E0F6E0C0E106E000E116E0E06000E8B
:10224C000F5A105A115A0E280AE10F2808E11028CB
:10225C0006E11128D8A435EF11F037EF11F024EF77
:10226C0011F0000E126E350E136E0C0E146E000E65
:10227C00156E1206000E135A145A155A12280AE13A
:10228C00132808E1142806E11528D8A450EF11F002
:10229C0052EF11F03FEF11F0000E166E350E176E67
:1022AC000C0E186E000E196E1606000E175A185AE0
:1022BC00195A16280AE1172808E1182806E11928E6
:1022CC00D8A46BEF11F06DEF11F05AEF11F04D0E29
:1022DC00026E2F0E036E07EC09F0660E026E2F0EC7
:1022EC00036E07EC09F0000E1F6E000E1E6EE8EF79
:1022FC0011F01E50300F7CEC08F0200E7CEC08F036
:10230C001E500A0DF3504DEC08F07CEC08F01E50FA
:10231C000A0DF3284DEC08F07CEC08F03A0E7CEC3E
:10232C0008F01E500A0DF350020F4DEC08F07CEC37
:10233C0008F01E500A0DF350030F4DEC08F07CEC26
:10234C0008F03A0E7CEC08F01E500A0DF350040F06
:10235C004DEC08F07CEC08F01E500A0DF350050F04
:10236C004DEC08F07CEC08F0200E7CEC08F01E50D4
:10237C000A0DF350060F4DEC08F07CEC08F01E50E3
:10238C000A0DF350070F4DEC08F07CEC08F0200E12
:10239C007CEC08F01E500A0DF350080F4DEC08F0C1
:1023AC007CEC08F01E500A0DF350090F4DEC08F0B0
:1023BC007CEC08F0630E026E2F0E036E07EC09F036
:1023CC001E4A1F2A57501E1807E158501F18D8A430
:1023DC00F2EF11F0F4EF11F07FEF11F057501E18DF
:1023EC0007E158501F18D8A4FEEF11F000EF12F0BF
:1023FC0022EF12F0000E1A6E350E1B6E0C0E1C6EB8
:10240C00000E1D6E1A06000E1B5A1C5A1D5A1A2855
:10241C000AE11B2808E11C2806E11D28D8A419EFA5
:10242C0012F01BEF12F008EF12F0000E016E010E0D
:10243C003EEC09F009EF11F0120078EC0AF0EF0E07
:10244C00036E2F0E046E800E056E08EC0AF0C00EA3
:10245C00096E3D5088EC08F0C10E096E3E5088ECB8
:10246C0008F0C20E096E3F5088EC08F0C30E096EDE
:10247C00405088EC08F0C40E096E415088EC08F00E
:10248C00C50E096E425088EC08F0C60E096E43501A
:10249C0088EC08F0C70E096E445088EC08F0F70E73
:1024AC00036E2F0E046E8A0E056E08EC0AF0010EF8
:1024BC003EEC0AF05D6E020E5D18D8A468EF12F0C7
:1024CC006AEF12F095EF12F0080E59185A10D8A4B2
:1024DC0072EF12F074EF12F07AEF12F0000E5A6EE7
:1024EC00020E596E8EEF12F0594A5A2A5ABE88EFD4
:1024FC0012F05A5009E1080E595CD8A088EF12F07E
:10250C008AEF12F08EEF12F0000E5A6E070E596E13
:10251C00000E0001C96F010EC86FD8EF12F0030E48
:10252C005D18D8A49CEF12F09EEF12F0C7EF12F0DA
:10253C00080E59185A10D8A4A6EF12F0A8EF12F0F2
:10254C00AAEF12F074EF12F059505A10D8B4B1EF40
:10255C0012F0B3EF12F0BCEF12F059045A10D8A4D9
:10256C00BAEF12F0BCEF12F0C2EF12F0000E5A6E7E
:10257C00010E596E8EEF12F05906D8A05A068EEF46
:10258C0012F05D04D8A4CDEF12F0CFEF12F0D8EF1B
:10259C0012F0000E5A6E080E596E000E0001C96F33
:1025AC00010EC86F5950030DF350940F366E36C0A0
:1025BC0003F0046ACA0E056E08EC0AF0F40E036E02
:1025CC002F0E046E8E0E056E08EC0AF0AE0E176E12
:1025DC00470E186E250E196E410E1A6EC6EC08F0D9
:1025EC0001C005F002C006F0076A086A000ED0ECC4
:1025FC000DF005C013F006C014F007C015F008C0AC
:10260C0016F0E3EC13F013C02CF014C02DF015C031
:10261C002EF016C02FF0C9EC0CF02CC039F02DC0E8
:10262C003AF0CE0E096E39C001F03AC002F0000E3D
:10263C00046E0A0E036E68EC0CF00150300F88EC3F
:10264C0008F0CF0E096E39C001F03AC002F0000E4E
:10265C00046E0A0E036EB4EC0BF00150300F88ECD4
:10266C0008F03DC0B8F03EC0B9F040C0BAF041C06F
:10267C00BBF043C0BCF044C0BDF05950030DF35047
:10268C00940FD96EDA6ADF500001BE6F5950030DFA
:10269C00F350950FD96EDA6ADF50BF6F39C001F075
:1026AC003AC002F0000E046E0A0E036E68EC0CF0D9
:1026BC000150300F0001C06F39C001F03AC002F078
:1026CC00000E046E0A0E036EB4EC0BF00150300FCA
:1026DC000001C16FC805C911D8A477EF13F079EFC9
:1026EC0013F0CEEF13F00A0E57185810D8A481EF40
:1026FC0013F083EF13F0A7EF13F0000E586E090ED2
:10270C00576E010E5724376E000E5820386E99EF15
:10271C0013F037504DEC08F0026E3750F60FEFEC1B
:10272C0008F0374A382A38BEA5EF13F0385009E1C3
:10273C00640E375CD8A0A5EF13F0A7EF13F08FEF62
:10274C0013F0000E3C6E000E3B6E3B50B80FD96E72
:10275C00DA6ADF50026E57500A0DF3503B24EFEC4F
:10276C0008F03B4A3C2A3CBEC5EF13F03C5009E153
:10277C000A0E3B5CD8A0C5EF13F0C7EF13F0ABEF1C
:10278C0013F0574A582A000E0001C96F000EC86F8B
:10279C00040E5D18D8A4D5EF13F0D7EF13F0E2EFC9
:1027AC0013F0010E5C6E000ECB6F000ECA6F000EA4
:1027BC00016E010E3EEC09F012001650800B236ED8
:1027CC00165016242A6E15AEEEEF13F0F0EF13F040
:1027DC00F1EF13F02A802A50D8B4F7EF13F0F9EF89
:1027EC0013F00DEF14F02A28D8A4FFEF13F001EF2B
:1027FC0014F009EF14F0000E136E000E146E000EA0
:10280C00156E000E166E158E166A15EF14F0000E6E
:10281C00136E000E146E000E156E000E166E1A500E
:10282C00800B231A1A501A242B6E19AE20EF14F0B9
:10283C0022EF14F023EF14F02B802B50D8B429EF97
:10284C0014F02BEF14F03FEF14F02B28D8A431EF39
:10285C0014F033EF14F03BEF14F0000E176E000E73
:10286C00186E000E196E000E1A6E198E1A6A47EF4A
:10287C0014F0000E176E000E186E000E196E000E7E
:10288C001A6E1750181019101A10D8A450EF14F013
:10289C0052EF14F06AEF14F0000E136E000E146E6B
:1028AC00000E156E000E166E800E15127F0E16128F
:1028BC002350161213C013F014C014F015C015F0E9
:1028CC0016C016F0AAEF15F02A50D8A470EF14F029
:1028DC0072EF14F07CEF14F0000E136E000E146EF9
:1028EC00000E156E000E166EAAEF15F02B502AC0B6
:1028FC001BF01C6A1B5E000E1C5A7F0E1B24246EE0
:10290C00000E1C20256E13C01FF014C020F015C043
:10291C0021F016C022F0000E136E000E146E000E85
:10292C00156E000E166E000E266E000E276E000E33
:10293C00286E000E296E2B6ADCEF14F02B50D8B4E5
:10294C00AAEF14F0ACEF14F0C3EF14F0D8901F36CC
:10295C00203621362236D8901336143615361636D4
:10296C0029AEBBEF14F0BDEF14F0BEEF14F01380E2
:10297C00D890263627362836293617501F5C185023
:10298C002058195021581A502258D8A0D0EF14F0C2
:10299C00D2EF14F0DBEF14F0298C17501F5E185097
:1029AC00205A1950215A1A50225A2B2A190E2B64CC
:1029BC00E2EF14F0E4EF14F0A4EF14F01F50201029
:1029CC0021102210D8B4EDEF14F0EFEF14F007EF54
:1029DC0015F0268007EF15F0D890133614361536FF
:1029EC00163629AEFCEF14F0FEEF14F0FFEF14F0E6
:1029FC001380D89026362736283629362406D8A0B8
:102A0C00250615AE0CEF15F00EEF15F0F2EF14F0E5
:102A1C002B6A29AE14EF15F016EF15F03AEF15F0FE
:102A2C00FF0E26141B6EFF0E27141C6EFF0E2814AF
:102A3C001D6E7F0E29141E6E1B501C101D101E10B7
:102A4C00D8B42BEF15F02DEF15F031EF15F0010E7A
:102A5C002B6E3AEF15F013A036EF15F038EF15F09A
:102A6C003AEF15F02DEF15F02B50D8B440EF15F0D0
:102A7C0042EF15F066EF15F0010E1326000E14222E
:102A8C001522162216A04DEF15F04FEF15F066EF3C
:102A9C0015F013C01BF014C01CF015C01DF016C0AF
:102AAC001EF01E341E321D321C321B321BC013F0A2
:102ABC001CC014F01DC015F01EC016F0244A252AA7
:102ACC0025BE71EF15F0255008E12428D8A071EF30
:102ADC0015F073EF15F07EEF15F0000E256E2468DF
:102AEC00000E136E000E146E000E156E000E166E98
:102AFC0025BE8BEF15F0255006E12404D8B089EFE4
:102B0C0015F08BEF15F098EF15F0000E256E000EFA
:102B1C00246E000E136E000E146E000E156E000E59
:102B2C00166E236A24C02AF02AA09FEF15F0A1EF9D
:102B3C0015F0A4EF15F0158EA5EF15F0159ED89095
:102B4C002A30166E5EEF14F0120078EC0AF0010ECB
:102B5C003EEC0AF05D6E0001C251C311D8A4B9EF6E
:102B6C0015F0BBEF15F0F5EF15F03D500A0DF3CF56
:102B7C0016F0F4CF17F03E501626000E1722F00E6A
:102B8C0016244D6EFD0E17204E6E40500A0DF3CFDD
:102B9C0016F0F4CF17F041501626000E1722F00E47
:102BAC0016244B6EFD0E17204C6E43500A0DF3CFBE
:102BBC0016F0F4CF17F044501626000E1722F00E24
:102BCC001624496EFD0E17204A6E000EC36F010EBF
:102BDC00C26F000E526E000E516E5FEC0BF00001D6
:102BEC00C44BC52B640EC419C511D8A400EF16F044
:102BFC0002EF16F0B3EF16F04DC001F04EC002F02C
:102C0C00000E046E0A0E036E68EC0CF00150300FCF
:102C1C000001AF6F4DC001F04EC002F0000E046E0B
:102C2C000A0E036EB4EC0BF00150300F0001B06FC4
:102C3C004BC001F04CC002F0000E046E0A0E036E85
:102C4C0068EC0CF00150300F0001B26F4BC001F07A
:102C5C004CC002F0000E046E0A0E036EB4EC0BF0C6
:102C6C000150300F0001B36F49C001F04AC002F0AF
:102C7C00000E046E0A0E036E68EC0CF00150300F5F
:102C8C000001B56F49C001F04AC002F0000E046E9D
:102C9C000A0E036EB4EC0BF00150300F0001B66F4E
:102CAC00000EC56F000EC46F51505210D8A461EFC6
:102CBC0016F063EF16F07AEF16F04F505010D8A4C0
:102CCC006AEF16F06CEF16F072EF16F0000E506E05
:102CDC00010E4F6EB3EF16F0000E506E000E4F6EDD
:102CEC00AF69B069B3EF16F051045210D8A481EF5C
:102CFC0016F083EF16F096EF16F04F505010D8A444
:102D0C008AEF16F08CEF16F08EEF16F06CEF16F0D3
:102D1C00000E506E000E4F6EB269B369B3EF16F031
:102D2C00020E51185210D8A49EEF16F0A0EF16F018
:102D3C00B3EF16F04F505010D8A4A7EF16F0A9EF30
:102D4C0016F0ABEF16F06CEF16F0000E506E000E96
:102D5C004F6EB569B669B3EF16F0030E5D18D8A4C3
:102D6C00BAEF16F0BCEF16F0DCEF16F0514A522A0F
:102D7C00000EC56F000EC46F000E506E000E4F6E2D
:102D8C0052BED2EF16F0525009E1030E515CD8A09E
:102D9C00D2EF16F0D4EF16F091EF17F0000E526E42
:102DAC00000E516E91EF17F091EF17F0020E5D18B7
:102DBC00D8A4E3EF16F0E5EF16F037EF17F051500B
:102DCC005210D8A4ECEF16F0EEEF16F000EF17F05F
:102DDC00010E4D24016E000E4E20026E000E046E8C
:102DEC00180E036EB4EC0BF001C04DF002C04EF0A7
:102DFC0091EF17F051045210D8A407EF17F009EF18
:102E0C0017F01BEF17F0010E4B24016E000E4C2037
:102E1C00026E000E046E3C0E036EB4EC0BF001C09F
:102E2C004BF002C04CF091EF17F0020E51185210FB
:102E3C00D8A423EF17F025EF17F0DAEF16F0010EF8
:102E4C004924016E000E4A20026E000E046E3C0EE8
:102E5C00036EB4EC0BF001C049F002C04AF091EFE4
:102E6C0017F0040E5D18D8A43EEF17F040EF17F0E2
:102E7C006CEF17F0000EC36F000EC26F000E506E99
:102E8C00000E4F6E4DC00DF04EC00EF04BC00FF04B
:102E9C004CC010F049C011F04AC012F022EC09F0FD
:102EAC00000E016E010E3EEC09F05C6A000E000192
:102EBC00CB6F000ECA6F000E566E000E556E000ED4
:102ECC00016E010E3EEC09F091EF17F0050E5D1846
:102EDC00D8A473EF17F075EF17F091EF17F0000E01
:102EEC00C36F000EC26F000E506E000E4F6E000EC0
:102EFC00016E010E3EEC09F05C6A000E0001CB6F16
:102F0C00000ECA6F000E566E000E556E000E016E4E
:102F1C00010E3EEC09F0790E036E2F0E046E800E3E
:102F2C00056E08EC0AF0AF0E036E046AC30E056E54
:102F3C0008EC0AF0000E016E010E3EEC09F01200D6
:102F4C000054484520446F776E6C6F6164204C4F81
:102F5C004753204152453A0A0D0023202020546942
:102F6C006D6520202045762053500A0D002020202E
:102F7C0048483A4D4D3A5353202000446F776E6CBD
:102F8C006F6164204C6F6720002053756363657319
:102F9C007366756C200020636C656172206C6F67C2
:102FAC00732000544F20444F574E4C4F4144200047
:102FBC0076696577206C6F67203A2D00204E4F2084
:102FCC004C4F475320002053756363657373200087
:102FDC002020546F207669657700204E6F206C6F2F
:0F2FEC0067730054696D6500535000457600000F
:052FFC007FEF09F00168
:020000040020DA
:08000000FFFFFFFFFFFFFFFF00
:020000040030CA
:0E000000FF071F1FFF8285FF0FC00FE00F409C
:00000001FF
